{
  "fileName": "TokenSwap.sol",
  "contractName": "TokenSwap",
  "source": "// SPDX-License-Identifier: MIT\npragma solidity ^0.6.12;\n\nimport { FlashLoanReceiverBase } from \"../submodules/aave-protocol-v2/contracts/flashloan/base/FlashLoanReceiverBase.sol\";\nimport { ILendingPool } from \"../submodules/aave-protocol-v2/contracts/interfaces/ILendingPool.sol\";\nimport { ILendingPoolAddressesProvider } from \"../submodules/aave-protocol-v2/contracts/interfaces/ILendingPoolAddressesProvider.sol\";\n\n// A partial ERC20 interface.\ninterface IERC20 {\n    function balanceOf(address owner) external view returns (uint256);\n    function allowance(address owner, address spender) external view returns(uint256);\n    function approve(address spender, uint256 amount) external returns (bool);\n    function transfer(address to, uint256 amount) external returns (bool);\n}\n\n// Demo contract that swaps its ERC20 balance for another ERC20.\n// NOT to be used in production.\ncontract TokenSwap is FlashLoanReceiverBase {\n\n    event Arbitrage(IERC20 orgToken, uint256 flashLoanAmount, IERC20 viaToken, uint256 initialOrgTokenAmount, uint256 initialViaTokenAmount, uint256 finalOrgTokenAmount, uint256 finalViaTokenAmount);\n\n    // Creator of this contract.\n    address public owner;\n\n    // Storage\n    uint256 initialOrgTokenAmount;\n    uint256 initialViaTokenAmount;\n\n    IERC20 orgToken;\n    uint256 flashLoanAmount;\n    IERC20 viaToken;\n    address forwardSpender;\n    address payable forwardSwapTarget;\n    bytes forwardSwapCallData;\n    address inverseSpender;\n    address payable inverseSwapTarget;\n    bytes inverseSwapCallData;\n    uint256 msgValue;\n\n\n    constructor(ILendingPoolAddressesProvider _addressProvider) FlashLoanReceiverBase(_addressProvider) public {\n        owner = msg.sender;\n    }\n\n    modifier onlyOwner() {\n        require(msg.sender == owner, \"ONLY_OWNER\");\n        _;\n    }\n\n    // Payable fallback to allow this contract to receive protocol fee refunds.\n    receive() external payable {}\n\n    // Transfer tokens held by this contrat to the sender/owner.\n    function withdrawToken(IERC20 token, uint256 amount)\n        external\n        onlyOwner\n    {\n        require(token.transfer(msg.sender, amount));\n    }\n\n    // Transfer ETH held by this contrat to the sender/owner.\n    function withdrawETH(uint256 amount)\n        external\n        onlyOwner\n    {\n        msg.sender.transfer(amount);\n    }\n\n    function executeOperation(\n        address[] calldata assets,\n        uint256[] calldata amounts,\n        uint256[] calldata premiums,\n        address initiator,\n        bytes calldata params\n    )\n        external\n        override\n        returns (bool)\n    {\n        // approve lending pool\n        uint amountOwing = amounts[0].add(premiums[0]);\n        IERC20(assets[0]).approve(address(LENDING_POOL), amountOwing);\n\n        // forward approve\n        if(orgToken.allowance(address(this), forwardSpender) != uint256(-1)) {\n            require(orgToken.approve(forwardSpender, uint256(-1)));\n        }\n        // forward swap\n        {\n            (bool forwardSuccess,) = forwardSwapTarget.call{value: msgValue}(forwardSwapCallData);\n            require(forwardSuccess, 'FORWARD_SWAP_CALL_FAILED');\n        }\n        // inverse approve\n        if(viaToken.allowance(address(this), inverseSpender) != uint256(-1)) {\n            require(viaToken.approve(inverseSpender, uint256(-1)));\n        }\n        // inverse swap\n        {\n            (bool inverseSuccess,) = inverseSwapTarget.call{value: msgValue}(inverseSwapCallData);\n            require(inverseSuccess, 'INVERSE_SWAP_CALL_FAILED');\n        }\n\n        // final value\n        uint256 finalOrgTokenAmount = orgToken.balanceOf(address(this)).sub(amountOwing);\n        uint256 finalViaTokenAmount = viaToken.balanceOf(address(this));\n\n        // event\n        emit Arbitrage(orgToken, flashLoanAmount, viaToken, initialOrgTokenAmount, initialViaTokenAmount, finalOrgTokenAmount, finalViaTokenAmount);\n\n        return true;\n    }\n\n\n    function arbitrage(\n        IERC20 _orgToken,\n        uint256 _flashLoanAmount,\n        IERC20 _viaToken,\n        address _forwardSpender,\n        address payable _forwardSwapTarget,\n        bytes calldata _forwardSwapCallData,\n        address _inverseSpender,\n        address payable _inverseSwapTarget,\n        bytes calldata _inverseSwapCallData\n    )\n        external\n        onlyOwner\n        payable\n    {\n        // initial value\n        initialOrgTokenAmount = _orgToken.balanceOf(address(this));\n        initialViaTokenAmount = _viaToken.balanceOf(address(this));\n\n        // Save parameters\n        saveParameters(\n            _orgToken,\n            _flashLoanAmount,\n            _viaToken,\n            _forwardSpender,\n            _forwardSwapTarget,\n            _forwardSwapCallData,\n            _inverseSpender,\n            _inverseSwapTarget,\n            _inverseSwapCallData            \n        );\n        msgValue = msg.value;\n\n        // FlashLoan\n        flashLoanCall(_orgToken, _flashLoanAmount);\n    }\n\n    function saveParameters(\n        IERC20 _orgToken,\n        uint256 _flashLoanAmount,\n        IERC20 _viaToken,\n        address _forwardSpender,\n        address payable _forwardSwapTarget,\n        bytes calldata _forwardSwapCallData,\n        address _inverseSpender,\n        address payable _inverseSwapTarget,\n        bytes calldata _inverseSwapCallData\n    )\n        private\n        onlyOwner\n    {\n        orgToken = _orgToken;\n        flashLoanAmount = _flashLoanAmount;\n        viaToken = _viaToken;\n        forwardSpender = _forwardSpender;\n        forwardSwapTarget = _forwardSwapTarget;\n        forwardSwapCallData = _forwardSwapCallData;\n        inverseSpender = _inverseSpender;\n        inverseSwapTarget = _inverseSwapTarget;\n        inverseSwapCallData = _inverseSwapCallData;\n    }\n\n    function flashLoanCall(\n        IERC20 _token,\n        uint256 _amount\n    )\n        private\n        onlyOwner\n    {        \n        address receiverAddress = address(this);\n\n        address[] memory assets = new address[](1);\n        assets[0] = address(_token);\n\n        uint256[] memory amounts = new uint256[](1);\n        amounts[0] = _amount;\n\n        // 0 = no debt, 1 = stable, 2 = variable\n        uint256[] memory modes = new uint256[](2);\n        modes[0] = 0;\n\n        address onBehalfOf = address(this);\n        bytes memory params = \"\";\n        uint16 referralCode = 0;\n\n        LENDING_POOL.flashLoan(\n            receiverAddress,\n            assets,\n            amounts,\n            modes,\n            onBehalfOf,\n            params,\n            referralCode\n        );\n    }\n}",
  "sourcePath": "contracts/TokenSwap.sol",
  "abi": [
    {
      "inputs": [
        {
          "internalType": "contract ILendingPoolAddressesProvider",
          "name": "_addressProvider",
          "type": "address"
        }
      ],
      "stateMutability": "nonpayable",
      "type": "constructor"
    },
    {
      "anonymous": false,
      "inputs": [
        {
          "indexed": false,
          "internalType": "contract IERC20",
          "name": "orgToken",
          "type": "address"
        },
        {
          "indexed": false,
          "internalType": "uint256",
          "name": "flashLoanAmount",
          "type": "uint256"
        },
        {
          "indexed": false,
          "internalType": "contract IERC20",
          "name": "viaToken",
          "type": "address"
        },
        {
          "indexed": false,
          "internalType": "uint256",
          "name": "initialOrgTokenAmount",
          "type": "uint256"
        },
        {
          "indexed": false,
          "internalType": "uint256",
          "name": "initialViaTokenAmount",
          "type": "uint256"
        },
        {
          "indexed": false,
          "internalType": "uint256",
          "name": "finalOrgTokenAmount",
          "type": "uint256"
        },
        {
          "indexed": false,
          "internalType": "uint256",
          "name": "finalViaTokenAmount",
          "type": "uint256"
        }
      ],
      "name": "Arbitrage",
      "type": "event"
    },
    {
      "inputs": [],
      "name": "ADDRESSES_PROVIDER",
      "outputs": [
        {
          "internalType": "contract ILendingPoolAddressesProvider",
          "name": "",
          "type": "address"
        }
      ],
      "stateMutability": "view",
      "type": "function"
    },
    {
      "inputs": [],
      "name": "LENDING_POOL",
      "outputs": [
        {
          "internalType": "contract ILendingPool",
          "name": "",
          "type": "address"
        }
      ],
      "stateMutability": "view",
      "type": "function"
    },
    {
      "inputs": [
        {
          "internalType": "contract IERC20",
          "name": "_orgToken",
          "type": "address"
        },
        {
          "internalType": "uint256",
          "name": "_flashLoanAmount",
          "type": "uint256"
        },
        {
          "internalType": "contract IERC20",
          "name": "_viaToken",
          "type": "address"
        },
        {
          "internalType": "address",
          "name": "_forwardSpender",
          "type": "address"
        },
        {
          "internalType": "address payable",
          "name": "_forwardSwapTarget",
          "type": "address"
        },
        {
          "internalType": "bytes",
          "name": "_forwardSwapCallData",
          "type": "bytes"
        },
        {
          "internalType": "address",
          "name": "_inverseSpender",
          "type": "address"
        },
        {
          "internalType": "address payable",
          "name": "_inverseSwapTarget",
          "type": "address"
        },
        {
          "internalType": "bytes",
          "name": "_inverseSwapCallData",
          "type": "bytes"
        }
      ],
      "name": "arbitrage",
      "outputs": [],
      "stateMutability": "payable",
      "type": "function"
    },
    {
      "inputs": [
        {
          "internalType": "address[]",
          "name": "assets",
          "type": "address[]"
        },
        {
          "internalType": "uint256[]",
          "name": "amounts",
          "type": "uint256[]"
        },
        {
          "internalType": "uint256[]",
          "name": "premiums",
          "type": "uint256[]"
        },
        {
          "internalType": "address",
          "name": "initiator",
          "type": "address"
        },
        {
          "internalType": "bytes",
          "name": "params",
          "type": "bytes"
        }
      ],
      "name": "executeOperation",
      "outputs": [
        {
          "internalType": "bool",
          "name": "",
          "type": "bool"
        }
      ],
      "stateMutability": "nonpayable",
      "type": "function"
    },
    {
      "inputs": [],
      "name": "owner",
      "outputs": [
        {
          "internalType": "address",
          "name": "",
          "type": "address"
        }
      ],
      "stateMutability": "view",
      "type": "function"
    },
    {
      "inputs": [
        {
          "internalType": "uint256",
          "name": "amount",
          "type": "uint256"
        }
      ],
      "name": "withdrawETH",
      "outputs": [],
      "stateMutability": "nonpayable",
      "type": "function"
    },
    {
      "inputs": [
        {
          "internalType": "contract IERC20",
          "name": "token",
          "type": "address"
        },
        {
          "internalType": "uint256",
          "name": "amount",
          "type": "uint256"
        }
      ],
      "name": "withdrawToken",
      "outputs": [],
      "stateMutability": "nonpayable",
      "type": "function"
    },
    {
      "stateMutability": "payable",
      "type": "receive"
    }
  ],
  "bytecode": "0x60c060405234801561001057600080fd5b5060405161204f38038061204f8339818101604052602081101561003357600080fd5b8101908080519060200190929190505050808073ffffffffffffffffffffffffffffffffffffffff1660808173ffffffffffffffffffffffffffffffffffffffff1660601b815250508073ffffffffffffffffffffffffffffffffffffffff16630261bf8b6040518163ffffffff1660e01b815260040160206040518083038186803b1580156100c257600080fd5b505afa1580156100d6573d6000803e3d6000fd5b505050506040513d60208110156100ec57600080fd5b810190808051906020019092919050505073ffffffffffffffffffffffffffffffffffffffff1660a08173ffffffffffffffffffffffffffffffffffffffff1660601b8152505050336000806101000a81548173ffffffffffffffffffffffffffffffffffffffff021916908373ffffffffffffffffffffffffffffffffffffffff1602179055505060805160601c60a05160601c611ea76101a86000398061083c52806114365280611a2652508061052f5250611ea76000f3fe6080604052600436106100745760003560e01c8063920f5c841161004e578063920f5c841461029b5780639e281a9814610456578063b4dcfc77146104b1578063f14210a6146104f25761007b565b80630542975c146100805780631568b4dc146100c15780638da5cb5b1461025a5761007b565b3661007b57005b600080fd5b34801561008c57600080fd5b5061009561052d565b604051808273ffffffffffffffffffffffffffffffffffffffff16815260200191505060405180910390f35b61025860048036036101208110156100d857600080fd5b81019080803573ffffffffffffffffffffffffffffffffffffffff16906020019092919080359060200190929190803573ffffffffffffffffffffffffffffffffffffffff169060200190929190803573ffffffffffffffffffffffffffffffffffffffff169060200190929190803573ffffffffffffffffffffffffffffffffffffffff1690602001909291908035906020019064010000000081111561017f57600080fd5b82018360208201111561019157600080fd5b803590602001918460018302840111640100000000831117156101b357600080fd5b9091929391929390803573ffffffffffffffffffffffffffffffffffffffff169060200190929190803573ffffffffffffffffffffffffffffffffffffffff1690602001909291908035906020019064010000000081111561021457600080fd5b82018360208201111561022657600080fd5b8035906020019184600183028401116401000000008311171561024857600080fd5b9091929391929390505050610551565b005b34801561026657600080fd5b5061026f610793565b604051808273ffffffffffffffffffffffffffffffffffffffff16815260200191505060405180910390f35b3480156102a757600080fd5b5061043e600480360360a08110156102be57600080fd5b81019080803590602001906401000000008111156102db57600080fd5b8201836020820111156102ed57600080fd5b8035906020019184602083028401116401000000008311171561030f57600080fd5b90919293919293908035906020019064010000000081111561033057600080fd5b82018360208201111561034257600080fd5b8035906020019184602083028401116401000000008311171561036457600080fd5b90919293919293908035906020019064010000000081111561038557600080fd5b82018360208201111561039757600080fd5b803590602001918460208302840111640100000000831117156103b957600080fd5b9091929391929390803573ffffffffffffffffffffffffffffffffffffffff169060200190929190803590602001906401000000008111156103fa57600080fd5b82018360208201111561040c57600080fd5b8035906020019184600183028401116401000000008311171561042e57600080fd5b90919293919293905050506107b7565b60405180821515815260200191505060405180910390f35b34801561046257600080fd5b506104af6004803603604081101561047957600080fd5b81019080803573ffffffffffffffffffffffffffffffffffffffff169060200190929190803590602001909291905050506112ba565b005b3480156104bd57600080fd5b506104c6611434565b604051808273ffffffffffffffffffffffffffffffffffffffff16815260200191505060405180910390f35b3480156104fe57600080fd5b5061052b6004803603602081101561051557600080fd5b8101908080359060200190929190505050611458565b005b7f000000000000000000000000000000000000000000000000000000000000000081565b60008054906101000a900473ffffffffffffffffffffffffffffffffffffffff1673ffffffffffffffffffffffffffffffffffffffff163373ffffffffffffffffffffffffffffffffffffffff1614610612576040517f08c379a000000000000000000000000000000000000000000000000000000000815260040180806020018281038252600a8152602001807f4f4e4c595f4f574e45520000000000000000000000000000000000000000000081525060200191505060405180910390fd5b8a73ffffffffffffffffffffffffffffffffffffffff166370a08231306040518263ffffffff1660e01b8152600401808273ffffffffffffffffffffffffffffffffffffffff16815260200191505060206040518083038186803b15801561067957600080fd5b505afa15801561068d573d6000803e3d6000fd5b505050506040513d60208110156106a357600080fd5b81019080805190602001909291905050506001819055508873ffffffffffffffffffffffffffffffffffffffff166370a08231306040518263ffffffff1660e01b8152600401808273ffffffffffffffffffffffffffffffffffffffff16815260200191505060206040518083038186803b15801561072157600080fd5b505afa158015610735573d6000803e3d6000fd5b505050506040513d602081101561074b57600080fd5b81019080805190602001909291905050506002819055506107758b8b8b8b8b8b8b8b8b8b8b611563565b34600c819055506107868b8b6117e2565b5050505050505050505050565b60008054906101000a900473ffffffffffffffffffffffffffffffffffffffff1681565b6000806107f3878760008181106107ca57fe5b905060200201358a8a60008181106107de57fe5b90506020020135611c4290919063ffffffff16565b90508a8a600081811061080257fe5b9050602002013573ffffffffffffffffffffffffffffffffffffffff1673ffffffffffffffffffffffffffffffffffffffff1663095ea7b37f0000000000000000000000000000000000000000000000000000000000000000836040518363ffffffff1660e01b8152600401808373ffffffffffffffffffffffffffffffffffffffff16815260200182815260200192505050602060405180830381600087803b1580156108af57600080fd5b505af11580156108c3573d6000803e3d6000fd5b505050506040513d60208110156108d957600080fd5b8101908080519060200190929190505050507fffffffffffffffffffffffffffffffffffffffffffffffffffffffffffffffff600360009054906101000a900473ffffffffffffffffffffffffffffffffffffffff1673ffffffffffffffffffffffffffffffffffffffff1663dd62ed3e30600660009054906101000a900473ffffffffffffffffffffffffffffffffffffffff166040518363ffffffff1660e01b8152600401808373ffffffffffffffffffffffffffffffffffffffff1681526020018273ffffffffffffffffffffffffffffffffffffffff1681526020019250505060206040518083038186803b1580156109d557600080fd5b505afa1580156109e9573d6000803e3d6000fd5b505050506040513d60208110156109ff57600080fd5b810190808051906020019092919050505014610b2f57600360009054906101000a900473ffffffffffffffffffffffffffffffffffffffff1673ffffffffffffffffffffffffffffffffffffffff1663095ea7b3600660009054906101000a900473ffffffffffffffffffffffffffffffffffffffff167fffffffffffffffffffffffffffffffffffffffffffffffffffffffffffffffff6040518363ffffffff1660e01b8152600401808373ffffffffffffffffffffffffffffffffffffffff16815260200182815260200192505050602060405180830381600087803b158015610aea57600080fd5b505af1158015610afe573d6000803e3d6000fd5b505050506040513d6020811015610b1457600080fd5b8101908080519060200190929190505050610b2e57600080fd5b5b6000600760009054906101000a900473ffffffffffffffffffffffffffffffffffffffff1673ffffffffffffffffffffffffffffffffffffffff16600c5460086040518082805460018160011615610100020316600290048015610bca5780601f10610ba8576101008083540402835291820191610bca565b820191906000526020600020905b815481529060010190602001808311610bb6575b505091505060006040518083038185875af1925050503d8060008114610c0c576040519150601f19603f3d011682016040523d82523d6000602084013e610c11565b606091505b5050905080610c88576040517f08c379a00000000000000000000000000000000000000000000000000000000081526004018080602001828103825260188152602001807f464f52574152445f535741505f43414c4c5f4641494c4544000000000000000081525060200191505060405180910390fd5b507fffffffffffffffffffffffffffffffffffffffffffffffffffffffffffffffff600560009054906101000a900473ffffffffffffffffffffffffffffffffffffffff1673ffffffffffffffffffffffffffffffffffffffff1663dd62ed3e30600960009054906101000a900473ffffffffffffffffffffffffffffffffffffffff166040518363ffffffff1660e01b8152600401808373ffffffffffffffffffffffffffffffffffffffff1681526020018273ffffffffffffffffffffffffffffffffffffffff1681526020019250505060206040518083038186803b158015610d7357600080fd5b505afa158015610d87573d6000803e3d6000fd5b505050506040513d6020811015610d9d57600080fd5b810190808051906020019092919050505014610ecd57600560009054906101000a900473ffffffffffffffffffffffffffffffffffffffff1673ffffffffffffffffffffffffffffffffffffffff1663095ea7b3600960009054906101000a900473ffffffffffffffffffffffffffffffffffffffff167fffffffffffffffffffffffffffffffffffffffffffffffffffffffffffffffff6040518363ffffffff1660e01b8152600401808373ffffffffffffffffffffffffffffffffffffffff16815260200182815260200192505050602060405180830381600087803b158015610e8857600080fd5b505af1158015610e9c573d6000803e3d6000fd5b505050506040513d6020811015610eb257600080fd5b8101908080519060200190929190505050610ecc57600080fd5b5b6000600a60009054906101000a900473ffffffffffffffffffffffffffffffffffffffff1673ffffffffffffffffffffffffffffffffffffffff16600c54600b6040518082805460018160011615610100020316600290048015610f685780601f10610f46576101008083540402835291820191610f68565b820191906000526020600020905b815481529060010190602001808311610f54575b505091505060006040518083038185875af1925050503d8060008114610faa576040519150601f19603f3d011682016040523d82523d6000602084013e610faf565b606091505b5050905080611026576040517f08c379a00000000000000000000000000000000000000000000000000000000081526004018080602001828103825260188152602001807f494e56455253455f535741505f43414c4c5f4641494c4544000000000000000081525060200191505060405180910390fd5b5060006110ff82600360009054906101000a900473ffffffffffffffffffffffffffffffffffffffff1673ffffffffffffffffffffffffffffffffffffffff166370a08231306040518263ffffffff1660e01b8152600401808273ffffffffffffffffffffffffffffffffffffffff16815260200191505060206040518083038186803b1580156110b657600080fd5b505afa1580156110ca573d6000803e3d6000fd5b505050506040513d60208110156110e057600080fd5b8101908080519060200190929190505050611cca90919063ffffffff16565b90506000600560009054906101000a900473ffffffffffffffffffffffffffffffffffffffff1673ffffffffffffffffffffffffffffffffffffffff166370a08231306040518263ffffffff1660e01b8152600401808273ffffffffffffffffffffffffffffffffffffffff16815260200191505060206040518083038186803b15801561118c57600080fd5b505afa1580156111a0573d6000803e3d6000fd5b505050506040513d60208110156111b657600080fd5b810190808051906020019092919050505090507f7af2d658603c1a978887978a10892cac66e7d337740da63f3ea440abd6395dd2600360009054906101000a900473ffffffffffffffffffffffffffffffffffffffff16600454600560009054906101000a900473ffffffffffffffffffffffffffffffffffffffff166001546002548787604051808873ffffffffffffffffffffffffffffffffffffffff1681526020018781526020018673ffffffffffffffffffffffffffffffffffffffff16815260200185815260200184815260200183815260200182815260200197505050505050505060405180910390a1600193505050509998505050505050505050565b60008054906101000a900473ffffffffffffffffffffffffffffffffffffffff1673ffffffffffffffffffffffffffffffffffffffff163373ffffffffffffffffffffffffffffffffffffffff161461137b576040517f08c379a000000000000000000000000000000000000000000000000000000000815260040180806020018281038252600a8152602001807f4f4e4c595f4f574e45520000000000000000000000000000000000000000000081525060200191505060405180910390fd5b8173ffffffffffffffffffffffffffffffffffffffff1663a9059cbb33836040518363ffffffff1660e01b8152600401808373ffffffffffffffffffffffffffffffffffffffff16815260200182815260200192505050602060405180830381600087803b1580156113ec57600080fd5b505af1158015611400573d6000803e3d6000fd5b505050506040513d602081101561141657600080fd5b810190808051906020019092919050505061143057600080fd5b5050565b7f000000000000000000000000000000000000000000000000000000000000000081565b60008054906101000a900473ffffffffffffffffffffffffffffffffffffffff1673ffffffffffffffffffffffffffffffffffffffff163373ffffffffffffffffffffffffffffffffffffffff1614611519576040517f08c379a000000000000000000000000000000000000000000000000000000000815260040180806020018281038252600a8152602001807f4f4e4c595f4f574e45520000000000000000000000000000000000000000000081525060200191505060405180910390fd5b3373ffffffffffffffffffffffffffffffffffffffff166108fc829081150290604051600060405180830381858888f1935050505015801561155f573d6000803e3d6000fd5b5050565b60008054906101000a900473ffffffffffffffffffffffffffffffffffffffff1673ffffffffffffffffffffffffffffffffffffffff163373ffffffffffffffffffffffffffffffffffffffff1614611624576040517f08c379a000000000000000000000000000000000000000000000000000000000815260040180806020018281038252600a8152602001807f4f4e4c595f4f574e45520000000000000000000000000000000000000000000081525060200191505060405180910390fd5b8a600360006101000a81548173ffffffffffffffffffffffffffffffffffffffff021916908373ffffffffffffffffffffffffffffffffffffffff1602179055508960048190555088600560006101000a81548173ffffffffffffffffffffffffffffffffffffffff021916908373ffffffffffffffffffffffffffffffffffffffff16021790555087600660006101000a81548173ffffffffffffffffffffffffffffffffffffffff021916908373ffffffffffffffffffffffffffffffffffffffff16021790555086600760006101000a81548173ffffffffffffffffffffffffffffffffffffffff021916908373ffffffffffffffffffffffffffffffffffffffff160217905550858560089190611740929190611dd4565b5083600960006101000a81548173ffffffffffffffffffffffffffffffffffffffff021916908373ffffffffffffffffffffffffffffffffffffffff16021790555082600a60006101000a81548173ffffffffffffffffffffffffffffffffffffffff021916908373ffffffffffffffffffffffffffffffffffffffff1602179055508181600b91906117d4929190611dd4565b505050505050505050505050565b60008054906101000a900473ffffffffffffffffffffffffffffffffffffffff1673ffffffffffffffffffffffffffffffffffffffff163373ffffffffffffffffffffffffffffffffffffffff16146118a3576040517f08c379a000000000000000000000000000000000000000000000000000000000815260040180806020018281038252600a8152602001807f4f4e4c595f4f574e45520000000000000000000000000000000000000000000081525060200191505060405180910390fd5b60003090506060600167ffffffffffffffff811180156118c257600080fd5b506040519080825280602002602001820160405280156118f15781602001602082028036833780820191505090505b509050838160008151811061190257fe5b602002602001019073ffffffffffffffffffffffffffffffffffffffff16908173ffffffffffffffffffffffffffffffffffffffff16815250506060600167ffffffffffffffff8111801561195657600080fd5b506040519080825280602002602001820160405280156119855781602001602082028036833780820191505090505b509050838160008151811061199657fe5b6020026020010181815250506060600267ffffffffffffffff811180156119bc57600080fd5b506040519080825280602002602001820160405280156119eb5781602001602082028036833780820191505090505b5090506000816000815181106119fd57fe5b6020026020010181815250506000309050606060405180602001604052806000815250905060007f000000000000000000000000000000000000000000000000000000000000000073ffffffffffffffffffffffffffffffffffffffff1663ab9c4b5d888888888888886040518863ffffffff1660e01b8152600401808873ffffffffffffffffffffffffffffffffffffffff1681526020018060200180602001806020018773ffffffffffffffffffffffffffffffffffffffff168152602001806020018661ffff16815260200185810385528b818151815260200191508051906020019060200280838360005b83811015611b07578082015181840152602081019050611aec565b5050505090500185810384528a818151815260200191508051906020019060200280838360005b83811015611b49578082015181840152602081019050611b2e565b50505050905001858103835289818151815260200191508051906020019060200280838360005b83811015611b8b578082015181840152602081019050611b70565b50505050905001858103825287818151815260200191508051906020019080838360005b83811015611bca578082015181840152602081019050611baf565b50505050905090810190601f168015611bf75780820380516001836020036101000a031916815260200191505b509b505050505050505050505050600060405180830381600087803b158015611c1f57600080fd5b505af1158015611c33573d6000803e3d6000fd5b50505050505050505050505050565b600080828401905083811015611cc0576040517f08c379a000000000000000000000000000000000000000000000000000000000815260040180806020018281038252601b8152602001807f536166654d6174683a206164646974696f6e206f766572666c6f77000000000081525060200191505060405180910390fd5b8091505092915050565b6000611d0c83836040518060400160405280601e81526020017f536166654d6174683a207375627472616374696f6e206f766572666c6f770000815250611d14565b905092915050565b6000838311158290611dc1576040517f08c379a00000000000000000000000000000000000000000000000000000000081526004018080602001828103825283818151815260200191508051906020019080838360005b83811015611d86578082015181840152602081019050611d6b565b50505050905090810190601f168015611db35780820380516001836020036101000a031916815260200191505b509250505060405180910390fd5b5060008385039050809150509392505050565b828054600181600116156101000203166002900490600052602060002090601f016020900481019282601f10611e1557803560ff1916838001178555611e43565b82800160010185558215611e43579182015b82811115611e42578235825591602001919060010190611e27565b5b509050611e509190611e54565b5090565b5b80821115611e6d576000816000905550600101611e55565b509056fea2646970667358221220237cd171bbe5fe4af50247e297ebe611d341d7add6deb17316b99042b579ca0c64736f6c634300060c0033",
  "compiler": {
    "name": "solc",
    "version": "0.6.12+commit.27d51765.Emscripten.clang",
    "optimizer": {
      "enabled": false,
      "runs": 200
    },
    "evmVersion": "petersburg"
  }
}