{
  "fileName": "TokenSwap.sol",
  "contractName": "TokenSwap",
  "source": "// SPDX-License-Identifier: MIT\npragma solidity ^0.6.12;\n\n// A partial ERC20 interface.\ninterface IERC20 {\n    function balanceOf(address owner) external view returns (uint256);\n    function allowance(address owner, address spender) external view returns(uint256);\n    function approve(address spender, uint256 amount) external returns (bool);\n    function transfer(address to, uint256 amount) external returns (bool);\n}\n\n// Demo contract that swaps its ERC20 balance for another ERC20.\n// NOT to be used in production.\ncontract TokenSwap {\n\n    event Arbitrage(IERC20 orgToken, IERC20 viaToken, uint256 initialOrgTokenAmount, uint256 initialViaTokenAmount, uint256 finalOrgTokenAmount, uint256 finalViaTokenAmount);\n    // event Arbitrage(IERC20 orgToken, IERC20 viaToken, uint256 initialOrgTokenAmount, uint256 initialViaTokenAmount, uint256 initialEthAmount, uint256 finalOrgTokenAmount, uint256 finalViaTokenAmount, uint256 finalEthAmount);\n    event BoughtTokens(IERC20 sellToken, IERC20 buyToken, uint256 boughtAmount);\n\n    // Creator of this contract.\n    address public owner;\n\n    constructor() public {\n        owner = msg.sender;\n    }\n\n    modifier onlyOwner() {\n        require(msg.sender == owner, \"ONLY_OWNER\");\n        _;\n    }\n\n    // Payable fallback to allow this contract to receive protocol fee refunds.\n    receive() external payable {}\n\n    // Transfer tokens held by this contrat to the sender/owner.\n    function withdrawToken(IERC20 token, uint256 amount)\n        external\n        onlyOwner\n    {\n        require(token.transfer(msg.sender, amount));\n    }\n\n    // Transfer ETH held by this contrat to the sender/owner.\n    function withdrawETH(uint256 amount)\n        external\n        onlyOwner\n    {\n        msg.sender.transfer(amount);\n    }\n\n    function arbitrage(\n        IERC20 orgToken,\n        IERC20 viaToken,\n        address forwardSpender,\n        address payable forwardSwapTarget,\n        bytes calldata forwardSwapCallData,\n        address inverseSpender,\n        address payable inverseSwapTarget,\n        bytes calldata inverseSwapCallData\n    )\n        external\n        onlyOwner\n        payable\n    {\n        // initial value\n        uint256 initialOrgTokenAmount = orgToken.balanceOf(address(this));\n        uint256 initialViaTokenAmount = viaToken.balanceOf(address(this));\n\n        // forward approve\n        if(orgToken.allowance(address(this), forwardSpender) != uint256(-1)) {\n            require(orgToken.approve(forwardSpender, uint256(-1)));\n        }\n        // forward swap\n        {\n            (bool forwardSuccess,) = forwardSwapTarget.call{value: msg.value}(forwardSwapCallData);\n            require(forwardSuccess, 'FORWARD_SWAP_CALL_FAILED');\n        }\n        // inverse approve\n        if(viaToken.allowance(address(this), inverseSpender) != uint256(-1)) {\n            require(viaToken.approve(inverseSpender, uint256(-1)));\n        }\n        // inverse swap\n        {\n            (bool inverseSuccess,) = inverseSwapTarget.call{value: msg.value}(inverseSwapCallData);\n            require(inverseSuccess, 'INVERSE_SWAP_CALL_FAILED');\n        }\n\n        // final value\n        uint256 finalOrgTokenAmount = orgToken.balanceOf(address(this));\n        uint256 finalViaTokenAmount = viaToken.balanceOf(address(this));\n\n        // event\n        emit Arbitrage(orgToken, viaToken, initialOrgTokenAmount, initialViaTokenAmount, finalOrgTokenAmount, finalViaTokenAmount);\n    }\n\n    // Swaps ERC20->ERC20 tokens held by this contract using a 0x-API quote.\n    function fillQuote(\n        // The `sellTokenAddress` field from the API response.\n        IERC20 sellToken,\n        // The `buyTokenAddress` field from the API response.\n        IERC20 buyToken,\n        // The `allowanceTarget` field from the API response.\n        address spender,\n        // The `to` field from the API response.\n        address payable swapTarget,\n        // The `data` field from the API response.\n        bytes calldata swapCallData\n    )\n        public\n        onlyOwner\n        payable // Must attach ETH equal to the `value` field from the API response.\n    {\n        // Track our balance of the buyToken to determine how much we've bought.\n        uint256 boughtAmount = buyToken.balanceOf(address(this));\n\n        // Give `spender` an infinite allowance to spend this contract's `sellToken`.\n        // Note that for some tokens (e.g., USDT, KNC), you must first reset any existing\n        // allowance to 0 before being able to update it.\n        require(sellToken.approve(spender, uint256(-1)));\n        // Call the encoded swap function call on the contract at `swapTarget`,\n        // passing along any ETH attached to this function call to cover protocol fees.\n        (bool success,) = swapTarget.call{value: msg.value}(swapCallData);\n        require(success, 'SWAP_CALL_FAILED');\n        // Refund any unspent protocol fees to the sender.\n        msg.sender.transfer(address(this).balance);\n\n        // Use our current buyToken balance to determine how much we've bought.\n        boughtAmount = buyToken.balanceOf(address(this)) - boughtAmount;\n        emit BoughtTokens(sellToken, buyToken, boughtAmount);\n    }\n\n    function debugBalanceToken(IERC20 token)\n        external view returns (uint256 balance)\n    {\n        balance = token.balanceOf(address(this));\n    }\n\n    function debugBalanceTokenOfSender(IERC20 token)\n        external view returns (uint256 balance)\n    {\n        balance = token.balanceOf(msg.sender);\n    }\n\n}",
  "sourcePath": "contracts/TokenSwap.sol",
  "abi": [
    {
      "inputs": [],
      "stateMutability": "nonpayable",
      "type": "constructor"
    },
    {
      "anonymous": false,
      "inputs": [
        {
          "indexed": false,
          "internalType": "contract IERC20",
          "name": "orgToken",
          "type": "address"
        },
        {
          "indexed": false,
          "internalType": "contract IERC20",
          "name": "viaToken",
          "type": "address"
        },
        {
          "indexed": false,
          "internalType": "uint256",
          "name": "initialOrgTokenAmount",
          "type": "uint256"
        },
        {
          "indexed": false,
          "internalType": "uint256",
          "name": "initialViaTokenAmount",
          "type": "uint256"
        },
        {
          "indexed": false,
          "internalType": "uint256",
          "name": "finalOrgTokenAmount",
          "type": "uint256"
        },
        {
          "indexed": false,
          "internalType": "uint256",
          "name": "finalViaTokenAmount",
          "type": "uint256"
        }
      ],
      "name": "Arbitrage",
      "type": "event"
    },
    {
      "anonymous": false,
      "inputs": [
        {
          "indexed": false,
          "internalType": "contract IERC20",
          "name": "sellToken",
          "type": "address"
        },
        {
          "indexed": false,
          "internalType": "contract IERC20",
          "name": "buyToken",
          "type": "address"
        },
        {
          "indexed": false,
          "internalType": "uint256",
          "name": "boughtAmount",
          "type": "uint256"
        }
      ],
      "name": "BoughtTokens",
      "type": "event"
    },
    {
      "inputs": [
        {
          "internalType": "contract IERC20",
          "name": "orgToken",
          "type": "address"
        },
        {
          "internalType": "contract IERC20",
          "name": "viaToken",
          "type": "address"
        },
        {
          "internalType": "address",
          "name": "forwardSpender",
          "type": "address"
        },
        {
          "internalType": "address payable",
          "name": "forwardSwapTarget",
          "type": "address"
        },
        {
          "internalType": "bytes",
          "name": "forwardSwapCallData",
          "type": "bytes"
        },
        {
          "internalType": "address",
          "name": "inverseSpender",
          "type": "address"
        },
        {
          "internalType": "address payable",
          "name": "inverseSwapTarget",
          "type": "address"
        },
        {
          "internalType": "bytes",
          "name": "inverseSwapCallData",
          "type": "bytes"
        }
      ],
      "name": "arbitrage",
      "outputs": [],
      "stateMutability": "payable",
      "type": "function"
    },
    {
      "inputs": [
        {
          "internalType": "contract IERC20",
          "name": "token",
          "type": "address"
        }
      ],
      "name": "debugBalanceToken",
      "outputs": [
        {
          "internalType": "uint256",
          "name": "balance",
          "type": "uint256"
        }
      ],
      "stateMutability": "view",
      "type": "function"
    },
    {
      "inputs": [
        {
          "internalType": "contract IERC20",
          "name": "token",
          "type": "address"
        }
      ],
      "name": "debugBalanceTokenOfSender",
      "outputs": [
        {
          "internalType": "uint256",
          "name": "balance",
          "type": "uint256"
        }
      ],
      "stateMutability": "view",
      "type": "function"
    },
    {
      "inputs": [
        {
          "internalType": "contract IERC20",
          "name": "sellToken",
          "type": "address"
        },
        {
          "internalType": "contract IERC20",
          "name": "buyToken",
          "type": "address"
        },
        {
          "internalType": "address",
          "name": "spender",
          "type": "address"
        },
        {
          "internalType": "address payable",
          "name": "swapTarget",
          "type": "address"
        },
        {
          "internalType": "bytes",
          "name": "swapCallData",
          "type": "bytes"
        }
      ],
      "name": "fillQuote",
      "outputs": [],
      "stateMutability": "payable",
      "type": "function"
    },
    {
      "inputs": [],
      "name": "owner",
      "outputs": [
        {
          "internalType": "address",
          "name": "",
          "type": "address"
        }
      ],
      "stateMutability": "view",
      "type": "function"
    },
    {
      "inputs": [
        {
          "internalType": "uint256",
          "name": "amount",
          "type": "uint256"
        }
      ],
      "name": "withdrawETH",
      "outputs": [],
      "stateMutability": "nonpayable",
      "type": "function"
    },
    {
      "inputs": [
        {
          "internalType": "contract IERC20",
          "name": "token",
          "type": "address"
        },
        {
          "internalType": "uint256",
          "name": "amount",
          "type": "uint256"
        }
      ],
      "name": "withdrawToken",
      "outputs": [],
      "stateMutability": "nonpayable",
      "type": "function"
    },
    {
      "stateMutability": "payable",
      "type": "receive"
    }
  ],
  "bytecode": "0x608060405234801561001057600080fd5b50336000806101000a81548173ffffffffffffffffffffffffffffffffffffffff021916908373ffffffffffffffffffffffffffffffffffffffff1602179055506116c7806100606000396000f3fe6080604052600436106100745760003560e01c80639e281a981161004e5780639e281a98146102b5578063a73c13f714610310578063ab97161214610375578063f14210a61461046e5761007b565b80632a60ddb9146100805780634d0cbfff146100e55780638da5cb5b146102745761007b565b3661007b57005b600080fd5b34801561008c57600080fd5b506100cf600480360360208110156100a357600080fd5b81019080803573ffffffffffffffffffffffffffffffffffffffff1690602001909291905050506104a9565b6040518082815260200191505060405180910390f35b61027260048036036101008110156100fc57600080fd5b81019080803573ffffffffffffffffffffffffffffffffffffffff169060200190929190803573ffffffffffffffffffffffffffffffffffffffff169060200190929190803573ffffffffffffffffffffffffffffffffffffffff169060200190929190803573ffffffffffffffffffffffffffffffffffffffff1690602001909291908035906020019064010000000081111561019957600080fd5b8201836020820111156101ab57600080fd5b803590602001918460018302840111640100000000831117156101cd57600080fd5b9091929391929390803573ffffffffffffffffffffffffffffffffffffffff169060200190929190803573ffffffffffffffffffffffffffffffffffffffff1690602001909291908035906020019064010000000081111561022e57600080fd5b82018360208201111561024057600080fd5b8035906020019184600183028401116401000000008311171561026257600080fd5b9091929391929390505050610554565b005b34801561028057600080fd5b50610289610e96565b604051808273ffffffffffffffffffffffffffffffffffffffff16815260200191505060405180910390f35b3480156102c157600080fd5b5061030e600480360360408110156102d857600080fd5b81019080803573ffffffffffffffffffffffffffffffffffffffff16906020019092919080359060200190929190505050610eba565b005b34801561031c57600080fd5b5061035f6004803603602081101561033357600080fd5b81019080803573ffffffffffffffffffffffffffffffffffffffff169060200190929190505050611034565b6040518082815260200191505060405180910390f35b61046c600480360360a081101561038b57600080fd5b81019080803573ffffffffffffffffffffffffffffffffffffffff169060200190929190803573ffffffffffffffffffffffffffffffffffffffff169060200190929190803573ffffffffffffffffffffffffffffffffffffffff169060200190929190803573ffffffffffffffffffffffffffffffffffffffff1690602001909291908035906020019064010000000081111561042857600080fd5b82018360208201111561043a57600080fd5b8035906020019184600183028401116401000000008311171561045c57600080fd5b90919293919293905050506110df565b005b34801561047a57600080fd5b506104a76004803603602081101561049157600080fd5b8101908080359060200190929190505050611586565b005b60008173ffffffffffffffffffffffffffffffffffffffff166370a08231306040518263ffffffff1660e01b8152600401808273ffffffffffffffffffffffffffffffffffffffff16815260200191505060206040518083038186803b15801561051257600080fd5b505afa158015610526573d6000803e3d6000fd5b505050506040513d602081101561053c57600080fd5b81019080805190602001909291905050509050919050565b60008054906101000a900473ffffffffffffffffffffffffffffffffffffffff1673ffffffffffffffffffffffffffffffffffffffff163373ffffffffffffffffffffffffffffffffffffffff1614610615576040517f08c379a000000000000000000000000000000000000000000000000000000000815260040180806020018281038252600a8152602001807f4f4e4c595f4f574e45520000000000000000000000000000000000000000000081525060200191505060405180910390fd5b60008a73ffffffffffffffffffffffffffffffffffffffff166370a08231306040518263ffffffff1660e01b8152600401808273ffffffffffffffffffffffffffffffffffffffff16815260200191505060206040518083038186803b15801561067e57600080fd5b505afa158015610692573d6000803e3d6000fd5b505050506040513d60208110156106a857600080fd5b8101908080519060200190929190505050905060008a73ffffffffffffffffffffffffffffffffffffffff166370a08231306040518263ffffffff1660e01b8152600401808273ffffffffffffffffffffffffffffffffffffffff16815260200191505060206040518083038186803b15801561072457600080fd5b505afa158015610738573d6000803e3d6000fd5b505050506040513d602081101561074e57600080fd5b810190808051906020019092919050505090507fffffffffffffffffffffffffffffffffffffffffffffffffffffffffffffffff8c73ffffffffffffffffffffffffffffffffffffffff1663dd62ed3e308d6040518363ffffffff1660e01b8152600401808373ffffffffffffffffffffffffffffffffffffffff1681526020018273ffffffffffffffffffffffffffffffffffffffff1681526020019250505060206040518083038186803b15801561080757600080fd5b505afa15801561081b573d6000803e3d6000fd5b505050506040513d602081101561083157600080fd5b81019080805190602001909291905050501461091d578b73ffffffffffffffffffffffffffffffffffffffff1663095ea7b38b7fffffffffffffffffffffffffffffffffffffffffffffffffffffffffffffffff6040518363ffffffff1660e01b8152600401808373ffffffffffffffffffffffffffffffffffffffff16815260200182815260200192505050602060405180830381600087803b1580156108d857600080fd5b505af11580156108ec573d6000803e3d6000fd5b505050506040513d602081101561090257600080fd5b810190808051906020019092919050505061091c57600080fd5b5b60008973ffffffffffffffffffffffffffffffffffffffff16348a8a60405180838380828437808301925050509250505060006040518083038185875af1925050503d806000811461098b576040519150601f19603f3d011682016040523d82523d6000602084013e610990565b606091505b5050905080610a07576040517f08c379a00000000000000000000000000000000000000000000000000000000081526004018080602001828103825260188152602001807f464f52574152445f535741505f43414c4c5f4641494c4544000000000000000081525060200191505060405180910390fd5b507fffffffffffffffffffffffffffffffffffffffffffffffffffffffffffffffff8b73ffffffffffffffffffffffffffffffffffffffff1663dd62ed3e30896040518363ffffffff1660e01b8152600401808373ffffffffffffffffffffffffffffffffffffffff1681526020018273ffffffffffffffffffffffffffffffffffffffff1681526020019250505060206040518083038186803b158015610aae57600080fd5b505afa158015610ac2573d6000803e3d6000fd5b505050506040513d6020811015610ad857600080fd5b810190808051906020019092919050505014610bc4578a73ffffffffffffffffffffffffffffffffffffffff1663095ea7b3877fffffffffffffffffffffffffffffffffffffffffffffffffffffffffffffffff6040518363ffffffff1660e01b8152600401808373ffffffffffffffffffffffffffffffffffffffff16815260200182815260200192505050602060405180830381600087803b158015610b7f57600080fd5b505af1158015610b93573d6000803e3d6000fd5b505050506040513d6020811015610ba957600080fd5b8101908080519060200190929190505050610bc357600080fd5b5b60008573ffffffffffffffffffffffffffffffffffffffff1634868660405180838380828437808301925050509250505060006040518083038185875af1925050503d8060008114610c32576040519150601f19603f3d011682016040523d82523d6000602084013e610c37565b606091505b5050905080610cae576040517f08c379a00000000000000000000000000000000000000000000000000000000081526004018080602001828103825260188152602001807f494e56455253455f535741505f43414c4c5f4641494c4544000000000000000081525060200191505060405180910390fd5b5060008c73ffffffffffffffffffffffffffffffffffffffff166370a08231306040518263ffffffff1660e01b8152600401808273ffffffffffffffffffffffffffffffffffffffff16815260200191505060206040518083038186803b158015610d1857600080fd5b505afa158015610d2c573d6000803e3d6000fd5b505050506040513d6020811015610d4257600080fd5b8101908080519060200190929190505050905060008c73ffffffffffffffffffffffffffffffffffffffff166370a08231306040518263ffffffff1660e01b8152600401808273ffffffffffffffffffffffffffffffffffffffff16815260200191505060206040518083038186803b158015610dbe57600080fd5b505afa158015610dd2573d6000803e3d6000fd5b505050506040513d6020811015610de857600080fd5b810190808051906020019092919050505090507ff96c68843be66ceba0883984b8602439afa9a9dadb99b940caeaa7ada4dc86878e8e86868686604051808773ffffffffffffffffffffffffffffffffffffffff1681526020018673ffffffffffffffffffffffffffffffffffffffff168152602001858152602001848152602001838152602001828152602001965050505050505060405180910390a15050505050505050505050505050565b60008054906101000a900473ffffffffffffffffffffffffffffffffffffffff1681565b60008054906101000a900473ffffffffffffffffffffffffffffffffffffffff1673ffffffffffffffffffffffffffffffffffffffff163373ffffffffffffffffffffffffffffffffffffffff1614610f7b576040517f08c379a000000000000000000000000000000000000000000000000000000000815260040180806020018281038252600a8152602001807f4f4e4c595f4f574e45520000000000000000000000000000000000000000000081525060200191505060405180910390fd5b8173ffffffffffffffffffffffffffffffffffffffff1663a9059cbb33836040518363ffffffff1660e01b8152600401808373ffffffffffffffffffffffffffffffffffffffff16815260200182815260200192505050602060405180830381600087803b158015610fec57600080fd5b505af1158015611000573d6000803e3d6000fd5b505050506040513d602081101561101657600080fd5b810190808051906020019092919050505061103057600080fd5b5050565b60008173ffffffffffffffffffffffffffffffffffffffff166370a08231336040518263ffffffff1660e01b8152600401808273ffffffffffffffffffffffffffffffffffffffff16815260200191505060206040518083038186803b15801561109d57600080fd5b505afa1580156110b1573d6000803e3d6000fd5b505050506040513d60208110156110c757600080fd5b81019080805190602001909291905050509050919050565b60008054906101000a900473ffffffffffffffffffffffffffffffffffffffff1673ffffffffffffffffffffffffffffffffffffffff163373ffffffffffffffffffffffffffffffffffffffff16146111a0576040517f08c379a000000000000000000000000000000000000000000000000000000000815260040180806020018281038252600a8152602001807f4f4e4c595f4f574e45520000000000000000000000000000000000000000000081525060200191505060405180910390fd5b60008573ffffffffffffffffffffffffffffffffffffffff166370a08231306040518263ffffffff1660e01b8152600401808273ffffffffffffffffffffffffffffffffffffffff16815260200191505060206040518083038186803b15801561120957600080fd5b505afa15801561121d573d6000803e3d6000fd5b505050506040513d602081101561123357600080fd5b810190808051906020019092919050505090508673ffffffffffffffffffffffffffffffffffffffff1663095ea7b3867fffffffffffffffffffffffffffffffffffffffffffffffffffffffffffffffff6040518363ffffffff1660e01b8152600401808373ffffffffffffffffffffffffffffffffffffffff16815260200182815260200192505050602060405180830381600087803b1580156112d757600080fd5b505af11580156112eb573d6000803e3d6000fd5b505050506040513d602081101561130157600080fd5b810190808051906020019092919050505061131b57600080fd5b60008473ffffffffffffffffffffffffffffffffffffffff1634858560405180838380828437808301925050509250505060006040518083038185875af1925050503d8060008114611389576040519150601f19603f3d011682016040523d82523d6000602084013e61138e565b606091505b5050905080611405576040517f08c379a00000000000000000000000000000000000000000000000000000000081526004018080602001828103825260108152602001807f535741505f43414c4c5f4641494c45440000000000000000000000000000000081525060200191505060405180910390fd5b3373ffffffffffffffffffffffffffffffffffffffff166108fc3073ffffffffffffffffffffffffffffffffffffffff16319081150290604051600060405180830381858888f19350505050158015611462573d6000803e3d6000fd5b50818773ffffffffffffffffffffffffffffffffffffffff166370a08231306040518263ffffffff1660e01b8152600401808273ffffffffffffffffffffffffffffffffffffffff16815260200191505060206040518083038186803b1580156114cb57600080fd5b505afa1580156114df573d6000803e3d6000fd5b505050506040513d60208110156114f557600080fd5b81019080805190602001909291905050500391507f6dfe06ca5961b140f839316b505392ab4a18727b308bfb7d9275f8ed1cc99f04888884604051808473ffffffffffffffffffffffffffffffffffffffff1681526020018373ffffffffffffffffffffffffffffffffffffffff168152602001828152602001935050505060405180910390a15050505050505050565b60008054906101000a900473ffffffffffffffffffffffffffffffffffffffff1673ffffffffffffffffffffffffffffffffffffffff163373ffffffffffffffffffffffffffffffffffffffff1614611647576040517f08c379a000000000000000000000000000000000000000000000000000000000815260040180806020018281038252600a8152602001807f4f4e4c595f4f574e45520000000000000000000000000000000000000000000081525060200191505060405180910390fd5b3373ffffffffffffffffffffffffffffffffffffffff166108fc829081150290604051600060405180830381858888f1935050505015801561168d573d6000803e3d6000fd5b505056fea2646970667358221220c613080c6e832c6eb677eae5d027b1ae1b0eb1afd557e9e32b6882c4c85334d264736f6c634300060c0033",
  "compiler": {
    "name": "solc",
    "version": "0.6.12+commit.27d51765.Emscripten.clang",
    "optimizer": {
      "enabled": false,
      "runs": 200
    },
    "evmVersion": "petersburg"
  }
}